:020000020000FC
:0200000025C019
:02000C0055C0DD
:1000400054C03F065B4F666D7C077F6F0FEF0DBF9F
:1000500008E00EBF01E00093680006E004B906E086
:1000600000936B000FE70AB905E005BD01E00093BE
:100070006E000FE007B978946627552700C00E94EC
:10008000500000005F9A0E9457005F98E1E2E50F80
:100090000E94500000005E9A0E9457005E98EFCFC9
:1000A000902F9A3008F09A5095919BB908958AE064
:1000B00000008A95E9F708952AE030E0199906C012
:1000C00000002A95D9F733950C9466001A9B06C058
:1000D000693011F466275395639505C0603011F4BB
:0E00E00069E05A956A9568B9CACF739518956C
:00000001FF
